{
  "_format": "hh-sol-artifact-1",
  "contractName": "TokenInsurance",
  "sourceName": "contracts/TokenInsurance.sol",
  "abi": [
    {
      "inputs": [
        {
          "internalType": "string",
          "name": "name_",
          "type": "string"
        },
        {
          "internalType": "string",
          "name": "symbol_",
          "type": "string"
        },
        {
          "internalType": "uint256",
          "name": "prime_",
          "type": "uint256"
        },
        {
          "internalType": "address",
          "name": "routerFunctions_",
          "type": "address"
        },
        {
          "internalType": "address",
          "name": "routerCCIP_",
          "type": "address"
        },
        {
          "internalType": "address",
          "name": "aggregatorNetwork",
          "type": "address"
        }
      ],
      "stateMutability": "nonpayable",
      "type": "constructor"
    },
    {
      "inputs": [
        {
          "internalType": "address",
          "name": "target",
          "type": "address"
        }
      ],
      "name": "AddressEmptyCode",
      "type": "error"
    },
    {
      "inputs": [
        {
          "internalType": "address",
          "name": "account",
          "type": "address"
        }
      ],
      "name": "AddressInsufficientBalance",
      "type": "error"
    },
    {
      "inputs": [
        {
          "internalType": "address",
          "name": "spender",
          "type": "address"
        },
        {
          "internalType": "uint256",
          "name": "allowance",
          "type": "uint256"
        },
        {
          "internalType": "uint256",
          "name": "needed",
          "type": "uint256"
        }
      ],
      "name": "ERC20InsufficientAllowance",
      "type": "error"
    },
    {
      "inputs": [
        {
          "internalType": "address",
          "name": "sender",
          "type": "address"
        },
        {
          "internalType": "uint256",
          "name": "balance",
          "type": "uint256"
        },
        {
          "internalType": "uint256",
          "name": "needed",
          "type": "uint256"
        }
      ],
      "name": "ERC20InsufficientBalance",
      "type": "error"
    },
    {
      "inputs": [
        {
          "internalType": "address",
          "name": "approver",
          "type": "address"
        }
      ],
      "name": "ERC20InvalidApprover",
      "type": "error"
    },
    {
      "inputs": [
        {
          "internalType": "address",
          "name": "receiver",
          "type": "address"
        }
      ],
      "name": "ERC20InvalidReceiver",
      "type": "error"
    },
    {
      "inputs": [
        {
          "internalType": "address",
          "name": "sender",
          "type": "address"
        }
      ],
      "name": "ERC20InvalidSender",
      "type": "error"
    },
    {
      "inputs": [
        {
          "internalType": "address",
          "name": "spender",
          "type": "address"
        }
      ],
      "name": "ERC20InvalidSpender",
      "type": "error"
    },
    {
      "inputs": [],
      "name": "FailedInnerCall",
      "type": "error"
    },
    {
      "inputs": [
        {
          "internalType": "address",
          "name": "router",
          "type": "address"
        }
      ],
      "name": "InvalidRouter",
      "type": "error"
    },
    {
      "inputs": [
        {
          "internalType": "uint256",
          "name": "currentBalance",
          "type": "uint256"
        },
        {
          "internalType": "uint256",
          "name": "calculatedFees",
          "type": "uint256"
        }
      ],
      "name": "NotEnoughBalance",
      "type": "error"
    },
    {
      "inputs": [],
      "name": "OnlyRouterCanFulfill",
      "type": "error"
    },
    {
      "inputs": [
        {
          "internalType": "address",
          "name": "token",
          "type": "address"
        }
      ],
      "name": "SafeERC20FailedOperation",
      "type": "error"
    },
    {
      "inputs": [],
      "name": "TokenInsurance__NeedsMoreThanZero",
      "type": "error"
    },
    {
      "inputs": [
        {
          "internalType": "bytes32",
          "name": "requestId",
          "type": "bytes32"
        }
      ],
      "name": "UnexpectedRequestID",
      "type": "error"
    },
    {
      "inputs": [],
      "name": "ZeroAddress",
      "type": "error"
    },
    {
      "anonymous": false,
      "inputs": [
        {
          "indexed": true,
          "internalType": "bytes32",
          "name": "requestId",
          "type": "bytes32"
        },
        {
          "indexed": true,
          "internalType": "address",
          "name": "tokenRWA",
          "type": "address"
        },
        {
          "indexed": false,
          "internalType": "string",
          "name": "symbol",
          "type": "string"
        }
      ],
      "name": "ApiRequest",
      "type": "event"
    },
    {
      "anonymous": false,
      "inputs": [
        {
          "indexed": true,
          "internalType": "bytes32",
          "name": "requestId",
          "type": "bytes32"
        },
        {
          "indexed": false,
          "internalType": "bytes",
          "name": "response",
          "type": "bytes"
        },
        {
          "indexed": false,
          "internalType": "bytes",
          "name": "err",
          "type": "bytes"
        },
        {
          "indexed": false,
          "internalType": "bool",
          "name": "settled",
          "type": "bool"
        }
      ],
      "name": "ApiResponse",
      "type": "event"
    },
    {
      "anonymous": false,
      "inputs": [
        {
          "indexed": true,
          "internalType": "address",
          "name": "owner",
          "type": "address"
        },
        {
          "indexed": true,
          "internalType": "address",
          "name": "spender",
          "type": "address"
        },
        {
          "indexed": false,
          "internalType": "uint256",
          "name": "value",
          "type": "uint256"
        }
      ],
      "name": "Approval",
      "type": "event"
    },
    {
      "anonymous": false,
      "inputs": [
        {
          "indexed": true,
          "internalType": "bytes32",
          "name": "messageId",
          "type": "bytes32"
        },
        {
          "indexed": true,
          "internalType": "address",
          "name": "securedAsset",
          "type": "address"
        },
        {
          "indexed": false,
          "internalType": "bool",
          "name": "liquidationResponse",
          "type": "bool"
        }
      ],
      "name": "HandlePayment",
      "type": "event"
    },
    {
      "anonymous": false,
      "inputs": [
        {
          "indexed": true,
          "internalType": "bytes32",
          "name": "messageId",
          "type": "bytes32"
        },
        {
          "indexed": true,
          "internalType": "address",
          "name": "sender",
          "type": "address"
        },
        {
          "indexed": false,
          "internalType": "address",
          "name": "insurance",
          "type": "address"
        },
        {
          "indexed": false,
          "internalType": "uint256",
          "name": "amount",
          "type": "uint256"
        }
      ],
      "name": "InsuranceHired",
      "type": "event"
    },
    {
      "anonymous": false,
      "inputs": [
        {
          "indexed": true,
          "internalType": "bytes32",
          "name": "messageId",
          "type": "bytes32"
        },
        {
          "indexed": false,
          "internalType": "address",
          "name": "sender",
          "type": "address"
        },
        {
          "indexed": false,
          "internalType": "address",
          "name": "token",
          "type": "address"
        },
        {
          "indexed": false,
          "internalType": "uint256",
          "name": "tokenAmount",
          "type": "uint256"
        },
        {
          "indexed": false,
          "internalType": "bytes",
          "name": "s_lastReceivedData",
          "type": "bytes"
        }
      ],
      "name": "InsureCallErrorEvent",
      "type": "event"
    },
    {
      "anonymous": false,
      "inputs": [
        {
          "indexed": true,
          "internalType": "address",
          "name": "_account",
          "type": "address"
        },
        {
          "indexed": false,
          "internalType": "uint256",
          "name": "_amount",
          "type": "uint256"
        }
      ],
      "name": "InsureEvent",
      "type": "event"
    },
    {
      "anonymous": false,
      "inputs": [
        {
          "indexed": true,
          "internalType": "bytes32",
          "name": "messageId",
          "type": "bytes32"
        },
        {
          "indexed": false,
          "internalType": "address",
          "name": "sender",
          "type": "address"
        },
        {
          "indexed": false,
          "internalType": "address",
          "name": "token",
          "type": "address"
        },
        {
          "indexed": false,
          "internalType": "uint256",
          "name": "tokenAmount",
          "type": "uint256"
        },
        {
          "indexed": false,
          "internalType": "bytes",
          "name": "s_lastReceivedData",
          "type": "bytes"
        }
      ],
      "name": "MessageReceived",
      "type": "event"
    },
    {
      "anonymous": false,
      "inputs": [
        {
          "indexed": true,
          "internalType": "bytes32",
          "name": "messageId",
          "type": "bytes32"
        },
        {
          "indexed": true,
          "internalType": "uint64",
          "name": "destinationChainSelector",
          "type": "uint64"
        },
        {
          "indexed": false,
          "internalType": "address",
          "name": "receiver",
          "type": "address"
        },
        {
          "indexed": false,
          "internalType": "address",
          "name": "token",
          "type": "address"
        },
        {
          "indexed": false,
          "internalType": "uint256",
          "name": "tokenAmount",
          "type": "uint256"
        },
        {
          "indexed": false,
          "internalType": "address",
          "name": "feeToken",
          "type": "address"
        },
        {
          "indexed": false,
          "internalType": "uint256",
          "name": "fees",
          "type": "uint256"
        }
      ],
      "name": "MessageSent",
      "type": "event"
    },
    {
      "anonymous": false,
      "inputs": [
        {
          "indexed": true,
          "internalType": "address",
          "name": "from",
          "type": "address"
        },
        {
          "indexed": true,
          "internalType": "address",
          "name": "to",
          "type": "address"
        }
      ],
      "name": "OwnershipTransferRequested",
      "type": "event"
    },
    {
      "anonymous": false,
      "inputs": [
        {
          "indexed": true,
          "internalType": "address",
          "name": "from",
          "type": "address"
        },
        {
          "indexed": true,
          "internalType": "address",
          "name": "to",
          "type": "address"
        }
      ],
      "name": "OwnershipTransferred",
      "type": "event"
    },
    {
      "anonymous": false,
      "inputs": [
        {
          "indexed": true,
          "internalType": "address",
          "name": "securedAsset",
          "type": "address"
        },
        {
          "indexed": true,
          "internalType": "address",
          "name": "insurance",
          "type": "address"
        }
      ],
      "name": "PerformUpkeep",
      "type": "event"
    },
    {
      "anonymous": false,
      "inputs": [
        {
          "indexed": true,
          "internalType": "bytes32",
          "name": "id",
          "type": "bytes32"
        }
      ],
      "name": "RequestFulfilled",
      "type": "event"
    },
    {
      "anonymous": false,
      "inputs": [
        {
          "indexed": false,
          "internalType": "string",
          "name": "reason",
          "type": "string"
        }
      ],
      "name": "RequestRevertedWithErrorMsg",
      "type": "event"
    },
    {
      "anonymous": false,
      "inputs": [
        {
          "indexed": false,
          "internalType": "bytes",
          "name": "data",
          "type": "bytes"
        }
      ],
      "name": "RequestRevertedWithoutErrorMsg",
      "type": "event"
    },
    {
      "anonymous": false,
      "inputs": [
        {
          "indexed": true,
          "internalType": "bytes32",
          "name": "id",
          "type": "bytes32"
        }
      ],
      "name": "RequestSent",
      "type": "event"
    },
    {
      "anonymous": false,
      "inputs": [
        {
          "indexed": true,
          "internalType": "address",
          "name": "from",
          "type": "address"
        },
        {
          "indexed": true,
          "internalType": "address",
          "name": "to",
          "type": "address"
        },
        {
          "indexed": false,
          "internalType": "uint256",
          "name": "value",
          "type": "uint256"
        }
      ],
      "name": "Transfer",
      "type": "event"
    },
    {
      "anonymous": false,
      "inputs": [
        {
          "indexed": true,
          "internalType": "address",
          "name": "inusrance",
          "type": "address"
        },
        {
          "indexed": true,
          "internalType": "address",
          "name": "client",
          "type": "address"
        },
        {
          "indexed": false,
          "internalType": "uint256",
          "name": "paymentValue",
          "type": "uint256"
        },
        {
          "indexed": false,
          "internalType": "uint256",
          "name": "totalValue",
          "type": "uint256"
        },
        {
          "indexed": false,
          "internalType": "uint256",
          "name": "insuranceTotalCost",
          "type": "uint256"
        }
      ],
      "name": "UserPayment",
      "type": "event"
    },
    {
      "inputs": [],
      "name": "acceptOwnership",
      "outputs": [],
      "stateMutability": "nonpayable",
      "type": "function"
    },
    {
      "inputs": [
        {
          "internalType": "address",
          "name": "owner",
          "type": "address"
        },
        {
          "internalType": "address",
          "name": "spender",
          "type": "address"
        }
      ],
      "name": "allowance",
      "outputs": [
        {
          "internalType": "uint256",
          "name": "",
          "type": "uint256"
        }
      ],
      "stateMutability": "view",
      "type": "function"
    },
    {
      "inputs": [],
      "name": "alreadyExecuted",
      "outputs": [
        {
          "internalType": "bool",
          "name": "",
          "type": "bool"
        }
      ],
      "stateMutability": "view",
      "type": "function"
    },
    {
      "inputs": [
        {
          "internalType": "address",
          "name": "spender",
          "type": "address"
        },
        {
          "internalType": "uint256",
          "name": "value",
          "type": "uint256"
        }
      ],
      "name": "approve",
      "outputs": [
        {
          "internalType": "bool",
          "name": "",
          "type": "bool"
        }
      ],
      "stateMutability": "nonpayable",
      "type": "function"
    },
    {
      "inputs": [
        {
          "internalType": "address",
          "name": "account",
          "type": "address"
        }
      ],
      "name": "balanceOf",
      "outputs": [
        {
          "internalType": "uint256",
          "name": "",
          "type": "uint256"
        }
      ],
      "stateMutability": "view",
      "type": "function"
    },
    {
      "inputs": [],
      "name": "blockshieldOwner",
      "outputs": [
        {
          "internalType": "address",
          "name": "",
          "type": "address"
        }
      ],
      "stateMutability": "view",
      "type": "function"
    },
    {
      "inputs": [
        {
          "internalType": "uint256",
          "name": "value",
          "type": "uint256"
        }
      ],
      "name": "burn",
      "outputs": [],
      "stateMutability": "nonpayable",
      "type": "function"
    },
    {
      "inputs": [
        {
          "internalType": "address",
          "name": "account",
          "type": "address"
        },
        {
          "internalType": "uint256",
          "name": "value",
          "type": "uint256"
        }
      ],
      "name": "burnFrom",
      "outputs": [],
      "stateMutability": "nonpayable",
      "type": "function"
    },
    {
      "inputs": [],
      "name": "callVaultHandleRWAPayment",
      "outputs": [],
      "stateMutability": "nonpayable",
      "type": "function"
    },
    {
      "inputs": [
        {
          "components": [
            {
              "internalType": "bytes32",
              "name": "messageId",
              "type": "bytes32"
            },
            {
              "internalType": "uint64",
              "name": "sourceChainSelector",
              "type": "uint64"
            },
            {
              "internalType": "bytes",
              "name": "sender",
              "type": "bytes"
            },
            {
              "internalType": "bytes",
              "name": "data",
              "type": "bytes"
            },
            {
              "components": [
                {
                  "internalType": "address",
                  "name": "token",
                  "type": "address"
                },
                {
                  "internalType": "uint256",
                  "name": "amount",
                  "type": "uint256"
                }
              ],
              "internalType": "struct Client.EVMTokenAmount[]",
              "name": "destTokenAmounts",
              "type": "tuple[]"
            }
          ],
          "internalType": "struct Client.Any2EVMMessage",
          "name": "message",
          "type": "tuple"
        }
      ],
      "name": "ccipReceive",
      "outputs": [],
      "stateMutability": "nonpayable",
      "type": "function"
    },
    {
      "inputs": [
        {
          "internalType": "bytes",
          "name": "",
          "type": "bytes"
        }
      ],
      "name": "checkUpkeep",
      "outputs": [
        {
          "internalType": "bool",
          "name": "upkeepNeeded",
          "type": "bool"
        },
        {
          "internalType": "bytes",
          "name": "performData",
          "type": "bytes"
        }
      ],
      "stateMutability": "view",
      "type": "function"
    },
    {
      "inputs": [],
      "name": "decimals",
      "outputs": [
        {
          "internalType": "uint8",
          "name": "",
          "type": "uint8"
        }
      ],
      "stateMutability": "view",
      "type": "function"
    },
    {
      "inputs": [],
      "name": "destinationChainSelector",
      "outputs": [
        {
          "internalType": "uint64",
          "name": "",
          "type": "uint64"
        }
      ],
      "stateMutability": "view",
      "type": "function"
    },
    {
      "inputs": [],
      "name": "donID",
      "outputs": [
        {
          "internalType": "bytes32",
          "name": "",
          "type": "bytes32"
        }
      ],
      "stateMutability": "view",
      "type": "function"
    },
    {
      "inputs": [],
      "name": "functionRouter",
      "outputs": [
        {
          "internalType": "address",
          "name": "",
          "type": "address"
        }
      ],
      "stateMutability": "view",
      "type": "function"
    },
    {
      "inputs": [],
      "name": "gasLimit",
      "outputs": [
        {
          "internalType": "uint32",
          "name": "",
          "type": "uint32"
        }
      ],
      "stateMutability": "view",
      "type": "function"
    },
    {
      "inputs": [],
      "name": "getLatestPrice",
      "outputs": [
        {
          "internalType": "int256",
          "name": "",
          "type": "int256"
        }
      ],
      "stateMutability": "view",
      "type": "function"
    },
    {
      "inputs": [],
      "name": "getPaymentTokenDecimals",
      "outputs": [
        {
          "internalType": "uint8",
          "name": "unitValue",
          "type": "uint8"
        }
      ],
      "stateMutability": "view",
      "type": "function"
    },
    {
      "inputs": [],
      "name": "getRouter",
      "outputs": [
        {
          "internalType": "address",
          "name": "",
          "type": "address"
        }
      ],
      "stateMutability": "view",
      "type": "function"
    },
    {
      "inputs": [
        {
          "internalType": "uint256",
          "name": "quantity",
          "type": "uint256"
        }
      ],
      "name": "getRwaTotalValueInTokenTransferDecimals",
      "outputs": [
        {
          "internalType": "uint256",
          "name": "totalValue",
          "type": "uint256"
        }
      ],
      "stateMutability": "view",
      "type": "function"
    },
    {
      "inputs": [],
      "name": "getRwaUnitValueInTokenTransferDecimals",
      "outputs": [
        {
          "internalType": "uint256",
          "name": "unitValue",
          "type": "uint256"
        }
      ],
      "stateMutability": "view",
      "type": "function"
    },
    {
      "inputs": [
        {
          "internalType": "uint256",
          "name": "tokeInsuranceBalance_",
          "type": "uint256"
        }
      ],
      "name": "getUserPaymentAmountInTokenTransferDecimals",
      "outputs": [
        {
          "internalType": "uint256",
          "name": "insuranceTotalCost",
          "type": "uint256"
        }
      ],
      "stateMutability": "view",
      "type": "function"
    },
    {
      "inputs": [
        {
          "internalType": "bytes32",
          "name": "requestId",
          "type": "bytes32"
        },
        {
          "internalType": "bytes",
          "name": "response",
          "type": "bytes"
        },
        {
          "internalType": "bytes",
          "name": "err",
          "type": "bytes"
        }
      ],
      "name": "handleOracleFulfillment",
      "outputs": [],
      "stateMutability": "nonpayable",
      "type": "function"
    },
    {
      "inputs": [
        {
          "internalType": "uint256",
          "name": "quantity_",
          "type": "uint256"
        }
      ],
      "name": "hireInsurance",
      "outputs": [],
      "stateMutability": "nonpayable",
      "type": "function"
    },
    {
      "inputs": [],
      "name": "linkAddress",
      "outputs": [
        {
          "internalType": "address",
          "name": "",
          "type": "address"
        }
      ],
      "stateMutability": "view",
      "type": "function"
    },
    {
      "inputs": [
        {
          "internalType": "address",
          "name": "account",
          "type": "address"
        }
      ],
      "name": "linkBalance",
      "outputs": [
        {
          "internalType": "uint256",
          "name": "",
          "type": "uint256"
        }
      ],
      "stateMutability": "view",
      "type": "function"
    },
    {
      "inputs": [],
      "name": "linkToken",
      "outputs": [
        {
          "internalType": "contract LinkTokenInterface",
          "name": "",
          "type": "address"
        }
      ],
      "stateMutability": "view",
      "type": "function"
    },
    {
      "inputs": [],
      "name": "name",
      "outputs": [
        {
          "internalType": "string",
          "name": "",
          "type": "string"
        }
      ],
      "stateMutability": "view",
      "type": "function"
    },
    {
      "inputs": [],
      "name": "owner",
      "outputs": [
        {
          "internalType": "address",
          "name": "",
          "type": "address"
        }
      ],
      "stateMutability": "view",
      "type": "function"
    },
    {
      "inputs": [],
      "name": "payInsuranceClients",
      "outputs": [],
      "stateMutability": "nonpayable",
      "type": "function"
    },
    {
      "inputs": [
        {
          "internalType": "bytes",
          "name": "",
          "type": "bytes"
        }
      ],
      "name": "performUpkeep",
      "outputs": [],
      "stateMutability": "nonpayable",
      "type": "function"
    },
    {
      "inputs": [],
      "name": "prime",
      "outputs": [
        {
          "internalType": "uint256",
          "name": "",
          "type": "uint256"
        }
      ],
      "stateMutability": "view",
      "type": "function"
    },
    {
      "inputs": [],
      "name": "request",
      "outputs": [
        {
          "internalType": "bytes",
          "name": "",
          "type": "bytes"
        }
      ],
      "stateMutability": "view",
      "type": "function"
    },
    {
      "inputs": [],
      "name": "router",
      "outputs": [
        {
          "internalType": "contract IRouterClient",
          "name": "",
          "type": "address"
        }
      ],
      "stateMutability": "view",
      "type": "function"
    },
    {
      "inputs": [],
      "name": "routerAddress",
      "outputs": [
        {
          "internalType": "address",
          "name": "",
          "type": "address"
        }
      ],
      "stateMutability": "view",
      "type": "function"
    },
    {
      "inputs": [],
      "name": "s_lastError",
      "outputs": [
        {
          "internalType": "bytes",
          "name": "",
          "type": "bytes"
        }
      ],
      "stateMutability": "view",
      "type": "function"
    },
    {
      "inputs": [],
      "name": "s_lastRequestId",
      "outputs": [
        {
          "internalType": "bytes32",
          "name": "",
          "type": "bytes32"
        }
      ],
      "stateMutability": "view",
      "type": "function"
    },
    {
      "inputs": [],
      "name": "s_lastResponse",
      "outputs": [
        {
          "internalType": "bytes",
          "name": "",
          "type": "bytes"
        }
      ],
      "stateMutability": "view",
      "type": "function"
    },
    {
      "inputs": [],
      "name": "s_settled",
      "outputs": [
        {
          "internalType": "bool",
          "name": "",
          "type": "bool"
        }
      ],
      "stateMutability": "view",
      "type": "function"
    },
    {
      "inputs": [
        {
          "internalType": "address",
          "name": "tokenRWA",
          "type": "address"
        },
        {
          "internalType": "string",
          "name": "symbol",
          "type": "string"
        }
      ],
      "name": "sendGetLiquidationRequest",
      "outputs": [],
      "stateMutability": "nonpayable",
      "type": "function"
    },
    {
      "inputs": [
        {
          "internalType": "address",
          "name": "vault_",
          "type": "address"
        }
      ],
      "name": "setVault",
      "outputs": [],
      "stateMutability": "nonpayable",
      "type": "function"
    },
    {
      "inputs": [],
      "name": "subscriptionId",
      "outputs": [
        {
          "internalType": "uint64",
          "name": "",
          "type": "uint64"
        }
      ],
      "stateMutability": "view",
      "type": "function"
    },
    {
      "inputs": [
        {
          "internalType": "bytes4",
          "name": "interfaceId",
          "type": "bytes4"
        }
      ],
      "name": "supportsInterface",
      "outputs": [
        {
          "internalType": "bool",
          "name": "",
          "type": "bool"
        }
      ],
      "stateMutability": "pure",
      "type": "function"
    },
    {
      "inputs": [],
      "name": "symbol",
      "outputs": [
        {
          "internalType": "string",
          "name": "",
          "type": "string"
        }
      ],
      "stateMutability": "view",
      "type": "function"
    },
    {
      "inputs": [],
      "name": "tokenRWAInfo",
      "outputs": [
        {
          "internalType": "address",
          "name": "securedAsset",
          "type": "address"
        },
        {
          "internalType": "uint256",
          "name": "totalSupply",
          "type": "uint256"
        },
        {
          "internalType": "uint256",
          "name": "totalValue",
          "type": "uint256"
        },
        {
          "internalType": "uint256",
          "name": "dueDate",
          "type": "uint256"
        },
        {
          "internalType": "string",
          "name": "symbol",
          "type": "string"
        },
        {
          "internalType": "bool",
          "name": "isSet",
          "type": "bool"
        }
      ],
      "stateMutability": "view",
      "type": "function"
    },
    {
      "inputs": [],
      "name": "totalSupply",
      "outputs": [
        {
          "internalType": "uint256",
          "name": "",
          "type": "uint256"
        }
      ],
      "stateMutability": "view",
      "type": "function"
    },
    {
      "inputs": [
        {
          "internalType": "address",
          "name": "to",
          "type": "address"
        },
        {
          "internalType": "uint256",
          "name": "value",
          "type": "uint256"
        }
      ],
      "name": "transfer",
      "outputs": [
        {
          "internalType": "bool",
          "name": "",
          "type": "bool"
        }
      ],
      "stateMutability": "nonpayable",
      "type": "function"
    },
    {
      "inputs": [
        {
          "internalType": "address",
          "name": "from",
          "type": "address"
        },
        {
          "internalType": "address",
          "name": "to",
          "type": "address"
        },
        {
          "internalType": "uint256",
          "name": "value",
          "type": "uint256"
        }
      ],
      "name": "transferFrom",
      "outputs": [
        {
          "internalType": "bool",
          "name": "",
          "type": "bool"
        }
      ],
      "stateMutability": "nonpayable",
      "type": "function"
    },
    {
      "inputs": [
        {
          "internalType": "address",
          "name": "to",
          "type": "address"
        }
      ],
      "name": "transferOwnership",
      "outputs": [],
      "stateMutability": "nonpayable",
      "type": "function"
    },
    {
      "inputs": [],
      "name": "transferTokenAddress",
      "outputs": [
        {
          "internalType": "address",
          "name": "",
          "type": "address"
        }
      ],
      "stateMutability": "view",
      "type": "function"
    },
    {
      "inputs": [
        {
          "internalType": "bytes",
          "name": "_request",
          "type": "bytes"
        },
        {
          "internalType": "uint64",
          "name": "_subscriptionId",
          "type": "uint64"
        },
        {
          "internalType": "uint32",
          "name": "_gasLimit",
          "type": "uint32"
        },
        {
          "internalType": "bytes32",
          "name": "_donID",
          "type": "bytes32"
        }
      ],
      "name": "updateRequest",
      "outputs": [],
      "stateMutability": "nonpayable",
      "type": "function"
    },
    {
      "inputs": [
        {
          "internalType": "uint64",
          "name": "_destinationChainSelector",
          "type": "uint64"
        },
        {
          "internalType": "address",
          "name": "_linkAddress",
          "type": "address"
        },
        {
          "internalType": "address",
          "name": "_transferTokenAddress",
          "type": "address"
        }
      ],
      "name": "updateSenderCrossChainProperties",
      "outputs": [],
      "stateMutability": "nonpayable",
      "type": "function"
    },
    {
      "inputs": [
        {
          "components": [
            {
              "internalType": "address",
              "name": "securedAsset",
              "type": "address"
            },
            {
              "internalType": "uint256",
              "name": "totalSupply",
              "type": "uint256"
            },
            {
              "internalType": "uint256",
              "name": "totalValue",
              "type": "uint256"
            },
            {
              "internalType": "uint256",
              "name": "dueDate",
              "type": "uint256"
            },
            {
              "internalType": "string",
              "name": "symbol",
              "type": "string"
            },
            {
              "internalType": "bool",
              "name": "isSet",
              "type": "bool"
            }
          ],
          "internalType": "struct TokenInsurance.TokenRWAInfo",
          "name": "rwa",
          "type": "tuple"
        }
      ],
      "name": "updateTokenRWADetails",
      "outputs": [],
      "stateMutability": "nonpayable",
      "type": "function"
    },
    {
      "inputs": [],
      "name": "vault",
      "outputs": [
        {
          "internalType": "address",
          "name": "",
          "type": "address"
        }
      ],
      "stateMutability": "view",
      "type": "function"
    }
  ],
  "bytecode": "0x60c06040523480156200001157600080fd5b506040516200798838038062007988833981810160405281019062000037919062000aa7565b818083853380806000848e8e816003908162000054919062000dc2565b50806004908162000066919062000dc2565b5050508073ffffffffffffffffffffffffffffffffffffffff1660808173ffffffffffffffffffffffffffffffffffffffff168152505050600073ffffffffffffffffffffffffffffffffffffffff168273ffffffffffffffffffffffffffffffffffffffff160362000110576040517f08c379a0000000000000000000000000000000000000000000000000000000008152600401620001079062000f0a565b60405180910390fd5b81600560006101000a81548173ffffffffffffffffffffffffffffffffffffffff021916908373ffffffffffffffffffffffffffffffffffffffff160217905550600073ffffffffffffffffffffffffffffffffffffffff168173ffffffffffffffffffffffffffffffffffffffff1614620001985762000197816200071a60201b60201c565b5b505050600073ffffffffffffffffffffffffffffffffffffffff168273ffffffffffffffffffffffffffffffffffffffff16036200020d576040517f08c379a0000000000000000000000000000000000000000000000000000000008152600401620002049062000f7c565b60405180910390fd5b600073ffffffffffffffffffffffffffffffffffffffff168173ffffffffffffffffffffffffffffffffffffffff16036200027f576040517f08c379a0000000000000000000000000000000000000000000000000000000008152600401620002769062000fee565b60405180910390fd5b81600d60016101000a81548173ffffffffffffffffffffffffffffffffffffffff021916908373ffffffffffffffffffffffffffffffffffffffff1602179055505050600073ffffffffffffffffffffffffffffffffffffffff168173ffffffffffffffffffffffffffffffffffffffff160362000329576040517fd92e233d00000000000000000000000000000000000000000000000000000000815260040160405180910390fd5b33601060006101000a81548173ffffffffffffffffffffffffffffffffffffffff021916908373ffffffffffffffffffffffffffffffffffffffff16021790555080601360006101000a81548173ffffffffffffffffffffffffffffffffffffffff021916908373ffffffffffffffffffffffffffffffffffffffff160217905550601360009054906101000a900473ffffffffffffffffffffffffffffffffffffffff16600e60006101000a81548173ffffffffffffffffffffffffffffffffffffffff021916908373ffffffffffffffffffffffffffffffffffffffff16021790555050600073ffffffffffffffffffffffffffffffffffffffff168173ffffffffffffffffffffffffffffffffffffffff1603620004845760006040517fd7f733340000000000000000000000000000000000000000000000000000000081526004016200047b919062001021565b60405180910390fd5b8073ffffffffffffffffffffffffffffffffffffffff1660a08173ffffffffffffffffffffffffffffffffffffffff168152505050600073ffffffffffffffffffffffffffffffffffffffff168173ffffffffffffffffffffffffffffffffffffffff16036200052b576040517f08c379a00000000000000000000000000000000000000000000000000000000081526004016200052290620010b4565b60405180910390fd5b50600086511162000573576040517f08c379a00000000000000000000000000000000000000000000000000000000081526004016200056a9062001126565b60405180910390fd5b6000855111620005ba576040517f08c379a0000000000000000000000000000000000000000000000000000000008152600401620005b19062001198565b60405180910390fd5b600385511162000601576040517f08c379a0000000000000000000000000000000000000000000000000000000008152600401620005f8906200120a565b60405180910390fd5b62000612846200084b60201b60201c565b62000654576040517f08c379a00000000000000000000000000000000000000000000000000000000081526004016200064b906200127c565b60405180910390fd5b600073ffffffffffffffffffffffffffffffffffffffff168173ffffffffffffffffffffffffffffffffffffffff1603620006c6576040517f08c379a0000000000000000000000000000000000000000000000000000000008152600401620006bd9062001314565b60405180910390fd5b83601a8190555080601860006101000a81548173ffffffffffffffffffffffffffffffffffffffff021916908373ffffffffffffffffffffffffffffffffffffffff160217905550505050505050620013a8565b3373ffffffffffffffffffffffffffffffffffffffff168173ffffffffffffffffffffffffffffffffffffffff16036200078b576040517f08c379a0000000000000000000000000000000000000000000000000000000008152600401620007829062001386565b60405180910390fd5b80600660006101000a81548173ffffffffffffffffffffffffffffffffffffffff021916908373ffffffffffffffffffffffffffffffffffffffff1602179055508073ffffffffffffffffffffffffffffffffffffffff16600560009054906101000a900473ffffffffffffffffffffffffffffffffffffffff1673ffffffffffffffffffffffffffffffffffffffff167fed8889f560326eb138920d842192f0eb3dd22b4f139c87a2c57538e05bae127860405160405180910390a350565b6000662386f26fc1000082101580156200086d5750670de0b6b3a76400008211155b9050919050565b6000604051905090565b600080fd5b600080fd5b600080fd5b600080fd5b6000601f19601f8301169050919050565b7f4e487b7100000000000000000000000000000000000000000000000000000000600052604160045260246000fd5b620008dd8262000892565b810181811067ffffffffffffffff82111715620008ff57620008fe620008a3565b5b80604052505050565b60006200091462000874565b9050620009228282620008d2565b919050565b600067ffffffffffffffff821115620009455762000944620008a3565b5b620009508262000892565b9050602081019050919050565b60005b838110156200097d57808201518184015260208101905062000960565b60008484015250505050565b6000620009a06200099a8462000927565b62000908565b905082815260208101848484011115620009bf57620009be6200088d565b5b620009cc8482856200095d565b509392505050565b600082601f830112620009ec57620009eb62000888565b5b8151620009fe84826020860162000989565b91505092915050565b6000819050919050565b62000a1c8162000a07565b811462000a2857600080fd5b50565b60008151905062000a3c8162000a11565b92915050565b600073ffffffffffffffffffffffffffffffffffffffff82169050919050565b600062000a6f8262000a42565b9050919050565b62000a818162000a62565b811462000a8d57600080fd5b50565b60008151905062000aa18162000a76565b92915050565b60008060008060008060c0878903121562000ac75762000ac66200087e565b5b600087015167ffffffffffffffff81111562000ae85762000ae762000883565b5b62000af689828a01620009d4565b965050602087015167ffffffffffffffff81111562000b1a5762000b1962000883565b5b62000b2889828a01620009d4565b955050604062000b3b89828a0162000a2b565b945050606062000b4e89828a0162000a90565b935050608062000b6189828a0162000a90565b92505060a062000b7489828a0162000a90565b9150509295509295509295565b600081519050919050565b7f4e487b7100000000000000000000000000000000000000000000000000000000600052602260045260246000fd5b6000600282049050600182168062000bd457607f821691505b60208210810362000bea5762000be962000b8c565b5b50919050565b60008190508160005260206000209050919050565b60006020601f8301049050919050565b600082821b905092915050565b60006008830262000c547fffffffffffffffffffffffffffffffffffffffffffffffffffffffffffffffff8262000c15565b62000c60868362000c15565b95508019841693508086168417925050509392505050565b6000819050919050565b600062000ca362000c9d62000c978462000a07565b62000c78565b62000a07565b9050919050565b6000819050919050565b62000cbf8362000c82565b62000cd762000cce8262000caa565b84845462000c22565b825550505050565b600090565b62000cee62000cdf565b62000cfb81848462000cb4565b505050565b5b8181101562000d235762000d1760008262000ce4565b60018101905062000d01565b5050565b601f82111562000d725762000d3c8162000bf0565b62000d478462000c05565b8101602085101562000d57578190505b62000d6f62000d668562000c05565b83018262000d00565b50505b505050565b600082821c905092915050565b600062000d976000198460080262000d77565b1980831691505092915050565b600062000db2838362000d84565b9150826002028217905092915050565b62000dcd8262000b81565b67ffffffffffffffff81111562000de95762000de8620008a3565b5b62000df5825462000bbb565b62000e0282828562000d27565b600060209050601f83116001811462000e3a576000841562000e25578287015190505b62000e31858262000da4565b86555062000ea1565b601f19841662000e4a8662000bf0565b60005b8281101562000e745784890151825560018201915060208501945060208101905062000e4d565b8683101562000e94578489015162000e90601f89168262000d84565b8355505b6001600288020188555050505b505050505050565b600082825260208201905092915050565b7f43616e6e6f7420736574206f776e657220746f207a65726f0000000000000000600082015250565b600062000ef260188362000ea9565b915062000eff8262000eba565b602082019050919050565b6000602082019050818103600083015262000f258162000ee3565b9050919050565b7f46756e6374696f6e3a20726f757465725f2063616e6e6f74206265207a65726f600082015250565b600062000f6460208362000ea9565b915062000f718262000f2c565b602082019050919050565b6000602082019050818103600083015262000f978162000f55565b9050919050565b7f46756e6374696f6e3a2073656e6465725f2063616e6e6f74206265207a65726f600082015250565b600062000fd660208362000ea9565b915062000fe38262000f9e565b602082019050919050565b60006020820190508181036000830152620010098162000fc7565b9050919050565b6200101b8162000a62565b82525050565b600060208201905062001038600083018462001010565b92915050565b7f426c6f636b736869656c644d65737361676552656365697665723a205f726f7560008201527f7465722063616e6e6f74206265207a65726f0000000000000000000000000000602082015250565b60006200109c60328362000ea9565b9150620010a9826200103e565b604082019050919050565b60006020820190508181036000830152620010cf816200108d565b9050919050565b7f4e616d652063616e6e6f7420626520656d707479000000000000000000000000600082015250565b60006200110e60148362000ea9565b91506200111b82620010d6565b602082019050919050565b600060208201905081810360008301526200114181620010ff565b9050919050565b7f53796d626f6c2063616e6e6f7420626520656d70747900000000000000000000600082015250565b60006200118060168362000ea9565b91506200118d8262001148565b602082019050919050565b60006020820190508181036000830152620011b38162001171565b9050919050565b7f53796d626f6c206d696e206c656e677468206973203300000000000000000000600082015250565b6000620011f260168362000ea9565b9150620011ff82620011ba565b602082019050919050565b600060208201905081810360008301526200122581620011e3565b9050919050565b7f496e76616c6964207072696d652070657263656e746167650000000000000000600082015250565b60006200126460188362000ea9565b915062001271826200122c565b602082019050919050565b60006020820190508181036000830152620012978162001255565b9050919050565b7f546f6b656e496e737572616e63653a2061676772656761746f724e6574776f7260008201527f6b2063616e6e6f74206265207a65726f20616464726573730000000000000000602082015250565b6000620012fc60388362000ea9565b915062001309826200129e565b604082019050919050565b600060208201905081810360008301526200132f81620012ed565b9050919050565b7f43616e6e6f74207472616e7366657220746f2073656c66000000000000000000600082015250565b60006200136e60178362000ea9565b91506200137b8262001336565b602082019050919050565b60006020820190508181036000830152620013a1816200135f565b9050919050565b60805160a0516165ac620013dc60003960008181611ae00152611ebe015260008181610ba4015261261101526165ac6000f3fe608060405234801561001057600080fd5b50600436106103425760003560e01c80636e74336b116101b8578063b0f479a111610104578063dcdfb268116100a2578063f43620f11161007c578063f43620f11461098b578063f68016b7146109a7578063f887ea40146109c5578063fbfa77cf146109e357610342565b8063dcdfb26814610921578063dd62ed3e1461093f578063f2fde38b1461096f57610342565b8063bab3a347116100de578063bab3a347146108ad578063c3c35a7e146108c9578063c41c7dce146108e7578063c7ee005e1461090357610342565b8063b0f479a114610841578063b13f25521461085f578063b1e217491461088f57610342565b806385572ffb116101715780638e15f4731161014b5780638e15f473146107cb5780638f4297eb146107e957806395d89b41146107f3578063a9059cbb1461081157610342565b806385572ffb1461077357806387820d771461078f5780638da5cb5b146107ad57610342565b80636e74336b146106b357806370a08231146106d1578063772aa0591461070157806379ba50971461073157806379cc67901461073b5780637fdb7b301461075757610342565b80632c823e8d116102925780634585e33b1161023057806357970e931161020a57806357970e93146106255780636817031b146106435780636a8a03781461065f5780636e04ff0d1461068257610342565b80634585e33b146105bb5780634b0795a8146105d7578063513e0bd6146105f557610342565b80633268cc561161026c5780633268cc5614610545578063338cdca1146105635780633944ea3a1461058157806342966c681461059f57610342565b80632c823e8d146104eb578063313ce5671461050957806331db1ffc1461052757610342565b80630fbdd72f116102ff5780631a776d16116102d95780631a776d1614610461578063235cea981461047f57806323b872dd1461049d5780632b94f96e146104cd57610342565b80630fbdd72f1461041b5780631436c06b1461042557806318160ddd1461044357610342565b806301ffc9a71461034757806306fdde0314610377578063095ea7b31461039557806309c1ba2e146103c55780630ca76175146103e35780630ceccc55146103ff575b600080fd5b610361600480360381019061035c9190613f55565b610a01565b60405161036e9190613f9d565b60405180910390f35b61037f610ad3565b60405161038c9190614048565b60405180910390f35b6103af60048036038101906103aa91906140fe565b610b65565b6040516103bc9190613f9d565b60405180910390f35b6103cd610b88565b6040516103da9190614161565b60405180910390f35b6103fd60048036038101906103f891906142e7565b610ba2565b005b61041960048036038101906104149190614396565b610c64565b005b610423610cf9565b005b61042d610ee8565b60405161043a91906143fb565b60405180910390f35b61044b610f80565b6040516104589190614425565b60405180910390f35b610469610f8a565b604051610476919061444f565b60405180910390f35b610487610fb0565b604051610494919061444f565b60405180910390f35b6104b760048036038101906104b2919061446a565b610fd6565b6040516104c49190613f9d565b60405180910390f35b6104d5611005565b6040516104e2919061444f565b60405180910390f35b6104f361102b565b6040516105009190613f9d565b60405180910390f35b61051161103e565b60405161051e91906143fb565b60405180910390f35b61052f611047565b60405161053c9190614161565b60405180910390f35b61054d611061565b60405161055a919061444f565b60405180910390f35b61056b611087565b6040516105789190614512565b60405180910390f35b610589611115565b6040516105969190614512565b60405180910390f35b6105b960048036038101906105b49190614534565b6111a3565b005b6105d560048036038101906105d091906145c1565b6111b7565b005b6105df6113f3565b6040516105ec9190614512565b60405180910390f35b61060f600480360381019061060a9190614534565b611481565b60405161061c9190614425565b60405180910390f35b61062d611532565b60405161063a919061466d565b60405180910390f35b61065d60048036038101906106589190614688565b611558565b005b6106676115d9565b604051610679969594939291906146b5565b60405180910390f35b61069c600480360381019061069791906145c1565b6116b8565b6040516106aa92919061471d565b60405180910390f35b6106bb611750565b6040516106c8919061475c565b60405180910390f35b6106eb60048036038101906106e69190614688565b611756565b6040516106f89190614425565b60405180910390f35b61071b60048036038101906107169190614534565b61179e565b6040516107289190614425565b60405180910390f35b6107396117ba565b005b610755600480360381019061075091906140fe565b611951565b005b610771600480360381019061076c91906147a3565b611971565b005b61078d60048036038101906107889190614815565b611ade565b005b610797611b83565b6040516107a49190614425565b60405180910390f35b6107b5611bbe565b6040516107c2919061444f565b60405180910390f35b6107d3611be8565b6040516107e09190614877565b60405180910390f35b6107f1611c89565b005b6107fb611e05565b6040516108089190614048565b60405180910390f35b61082b600480360381019061082691906140fe565b611e97565b6040516108389190613f9d565b60405180910390f35b610849611eba565b604051610856919061444f565b60405180910390f35b61087960048036038101906108749190614688565b611ee2565b6040516108869190614425565b60405180910390f35b610897611f87565b6040516108a4919061475c565b60405180910390f35b6108c760048036038101906108c29190614534565b611f8d565b005b6108d16124c7565b6040516108de9190613f9d565b60405180910390f35b61090160048036038101906108fc91906148ce565b6124da565b005b61090b612548565b6040516109189190614425565b60405180910390f35b61092961254e565b604051610936919061444f565b60405180910390f35b61095960048036038101906109549190614951565b612574565b6040516109669190614425565b60405180910390f35b61098960048036038101906109849190614688565b6125fb565b005b6109a560048036038101906109a09190614a32565b61260f565b005b6109af61283b565b6040516109bc9190614a9d565b60405180910390f35b6109cd61284f565b6040516109da9190614ad9565b60405180910390f35b6109eb612875565b6040516109f8919061444f565b60405180910390f35b60007f85572ffb000000000000000000000000000000000000000000000000000000007bffffffffffffffffffffffffffffffffffffffffffffffffffffffff1916827bffffffffffffffffffffffffffffffffffffffffffffffffffffffff19161480610acc57507f01ffc9a7000000000000000000000000000000000000000000000000000000007bffffffffffffffffffffffffffffffffffffffffffffffffffffffff1916827bffffffffffffffffffffffffffffffffffffffffffffffffffffffff1916145b9050919050565b606060038054610ae290614b23565b80601f0160208091040260200160405190810160405280929190818152602001828054610b0e90614b23565b8015610b5b5780601f10610b3057610100808354040283529160200191610b5b565b820191906000526020600020905b815481529060010190602001808311610b3e57829003601f168201915b5050505050905090565b600080610b7061289b565b9050610b7d8185856128a3565b600191505092915050565b600860009054906101000a900467ffffffffffffffff1681565b7f000000000000000000000000000000000000000000000000000000000000000073ffffffffffffffffffffffffffffffffffffffff163373ffffffffffffffffffffffffffffffffffffffff1614610c27576040517fc6829f8300000000000000000000000000000000000000000000000000000000815260040160405180910390fd5b610c328383836128b5565b827f85e1543bf2f84fe80c6badbce3648c8539ad1df4d2b3d822938ca0538be727e660405160405180910390a2505050565b610c6c6129b6565b600073ffffffffffffffffffffffffffffffffffffffff16816000016020810190610c979190614688565b73ffffffffffffffffffffffffffffffffffffffff1603610ce4576040517fd92e233d00000000000000000000000000000000000000000000000000000000815260040160405180910390fd5b80601d8181610cf391906150bf565b90505050565b60005b601c80549050811015610ee5576000601c8281548110610d1f57610d1e6150cd565b5b9060005260206000200160009054906101000a900473ffffffffffffffffffffffffffffffffffffffff16905060003073ffffffffffffffffffffffffffffffffffffffff166370a08231836040518263ffffffff1660e01b8152600401610d87919061444f565b602060405180830381865afa158015610da4573d6000803e3d6000fd5b505050506040513d601f19601f82011682018060405250810190610dc89190615111565b90506000610de6610dd761103e565b83612a4890919063ffffffff16565b90506000610df38261179e565b90506000610e0083611481565b905060008183610e10919061516d565b9050610e5f8682601260009054906101000a900473ffffffffffffffffffffffffffffffffffffffff1673ffffffffffffffffffffffffffffffffffffffff16612a6a9092919063ffffffff16565b610e698686612ae9565b8573ffffffffffffffffffffffffffffffffffffffff163073ffffffffffffffffffffffffffffffffffffffff167fd03cafff0f2f9b9dc1ab38f50ff68ea498534d06e2c34b930d51eb1c07d09a3d838686604051610eca939291906151a1565b60405180910390a35050505050508080600101915050610cfc565b50565b6000601260009054906101000a900473ffffffffffffffffffffffffffffffffffffffff1673ffffffffffffffffffffffffffffffffffffffff1663313ce5676040518163ffffffff1660e01b8152600401602060405180830381865afa158015610f57573d6000803e3d6000fd5b505050506040513d601f19601f82011682018060405250810190610f7b9190615204565b905090565b6000600254905090565b601060009054906101000a900473ffffffffffffffffffffffffffffffffffffffff1681565b601160009054906101000a900473ffffffffffffffffffffffffffffffffffffffff1681565b600080610fe161289b565b9050610fee858285612b6b565b610ff9858585612bff565b60019150509392505050565b601260009054906101000a900473ffffffffffffffffffffffffffffffffffffffff1681565b601b60009054906101000a900460ff1681565b60006012905090565b601060149054906101000a900467ffffffffffffffff1681565b601360009054906101000a900473ffffffffffffffffffffffffffffffffffffffff1681565b6007805461109490614b23565b80601f01602080910402602001604051908101604052809291908181526020018280546110c090614b23565b801561110d5780601f106110e25761010080835404028352916020019161110d565b820191906000526020600020905b8154815290600101906020018083116110f057829003601f168201915b505050505081565b600b805461112290614b23565b80601f016020809104026020016040519081016040528092919081815260200182805461114e90614b23565b801561119b5780601f106111705761010080835404028352916020019161119b565b820191906000526020600020905b81548152906001019060200180831161117e57829003601f168201915b505050505081565b6111b46111ae61289b565b82612ae9565b50565b60003073ffffffffffffffffffffffffffffffffffffffff16636e04ff0d6040516020016111e490615257565b6040516020818303038152906040526040518263ffffffff1660e01b815260040161120f9190614512565b600060405180830381865afa15801561122c573d6000803e3d6000fd5b505050506040513d6000823e3d601f19601f8201168201806040525081019061125591906152fc565b50905080611298576040517f08c379a000000000000000000000000000000000000000000000000000000000815260040161128f906153a4565b60405180910390fd5b611354601d60000160009054906101000a900473ffffffffffffffffffffffffffffffffffffffff16601d60040180546112d190614b23565b80601f01602080910402602001604051908101604052809291908181526020018280546112fd90614b23565b801561134a5780601f1061131f5761010080835404028352916020019161134a565b820191906000526020600020905b81548152906001019060200180831161132d57829003601f168201915b505050505061260f565b6001601b60006101000a81548160ff0219169083151502179055503073ffffffffffffffffffffffffffffffffffffffff16601d60000160009054906101000a900473ffffffffffffffffffffffffffffffffffffffff1673ffffffffffffffffffffffffffffffffffffffff167f01cb1bfa93d3fc7a4d2dc5503d5db208c00e3a17463a5e55c72e14b4977460b460405160405180910390a3505050565b600c805461140090614b23565b80601f016020809104026020016040519081016040528092919081815260200182805461142c90614b23565b80156114795780601f1061144e57610100808354040283529160200191611479565b820191906000526020600020905b81548152906001019060200180831161145c57829003601f168201915b505050505081565b60008061148c610ee8565b90506000611498611b83565b90506000826114a561103e565b6114af91906153c4565b9050600081600a6114c0919061552c565b836114cb9190615577565b905060006114d761103e565b600a6114e3919061552c565b601a54836114f19190615577565b6114fb91906155e8565b9050600083600a61150c919061552c565b8261151791906155e8565b905080886115259190615577565b9650505050505050919050565b600f60009054906101000a900473ffffffffffffffffffffffffffffffffffffffff1681565b6115606129b6565b600073ffffffffffffffffffffffffffffffffffffffff168173ffffffffffffffffffffffffffffffffffffffff16146115d65780601960006101000a81548173ffffffffffffffffffffffffffffffffffffffff021916908373ffffffffffffffffffffffffffffffffffffffff1602179055505b50565b601d8060000160009054906101000a900473ffffffffffffffffffffffffffffffffffffffff169080600101549080600201549080600301549080600401805461162290614b23565b80601f016020809104026020016040519081016040528092919081815260200182805461164e90614b23565b801561169b5780601f106116705761010080835404028352916020019161169b565b820191906000526020600020905b81548152906001019060200180831161167e57829003601f168201915b5050505050908060050160009054906101000a900460ff16905086565b60006060601b60009054906101000a900460ff161580156116dd57506116dc612cf3565b5b80156116f757506000600780546116f390614b23565b9050115b9150600067ffffffffffffffff811115611714576117136141bc565b5b6040519080825280601f01601f1916602001820160405280156117465781602001600182028036833780820191505090505b5090509250929050565b60095481565b60008060008373ffffffffffffffffffffffffffffffffffffffff1673ffffffffffffffffffffffffffffffffffffffff168152602001908152602001600020549050919050565b6000816117a9611b83565b6117b39190615577565b9050919050565b600660009054906101000a900473ffffffffffffffffffffffffffffffffffffffff1673ffffffffffffffffffffffffffffffffffffffff163373ffffffffffffffffffffffffffffffffffffffff161461184a576040517f08c379a000000000000000000000000000000000000000000000000000000000815260040161184190615665565b60405180910390fd5b6000600560009054906101000a900473ffffffffffffffffffffffffffffffffffffffff16905033600560006101000a81548173ffffffffffffffffffffffffffffffffffffffff021916908373ffffffffffffffffffffffffffffffffffffffff1602179055506000600660006101000a81548173ffffffffffffffffffffffffffffffffffffffff021916908373ffffffffffffffffffffffffffffffffffffffff1602179055503373ffffffffffffffffffffffffffffffffffffffff168173ffffffffffffffffffffffffffffffffffffffff167f8be0079c531659141344cd1fd0a4f28419497f9722a3daafe3b4186f6b6457e060405160405180910390a350565b6119638261195d61289b565b83612b6b565b61196d8282612ae9565b5050565b601060009054906101000a900473ffffffffffffffffffffffffffffffffffffffff1673ffffffffffffffffffffffffffffffffffffffff163373ffffffffffffffffffffffffffffffffffffffff16146119cb57600080fd5b82601060146101000a81548167ffffffffffffffff021916908367ffffffffffffffff16021790555081601160006101000a81548173ffffffffffffffffffffffffffffffffffffffff021916908373ffffffffffffffffffffffffffffffffffffffff16021790555080601260006101000a81548173ffffffffffffffffffffffffffffffffffffffff021916908373ffffffffffffffffffffffffffffffffffffffff160217905550601160009054906101000a900473ffffffffffffffffffffffffffffffffffffffff16600f60006101000a81548173ffffffffffffffffffffffffffffffffffffffff021916908373ffffffffffffffffffffffffffffffffffffffff160217905550505050565b7f000000000000000000000000000000000000000000000000000000000000000073ffffffffffffffffffffffffffffffffffffffff163373ffffffffffffffffffffffffffffffffffffffff1614611b6e57336040517fd7f73334000000000000000000000000000000000000000000000000000000008152600401611b65919061444f565b60405180910390fd5b611b8081611b7b90615882565b612d03565b50565b6000601d60010154611b93610ee8565b600a611b9f919061552c565b601d60020154611baf9190615577565b611bb991906155e8565b905090565b6000600560009054906101000a900473ffffffffffffffffffffffffffffffffffffffff16905090565b600080601860009054906101000a900473ffffffffffffffffffffffffffffffffffffffff1673ffffffffffffffffffffffffffffffffffffffff1663feaf968c6040518163ffffffff1660e01b815260040160a060405180830381865afa158015611c58573d6000803e3d6000fd5b505050506040513d601f19601f82011682018060405250810190611c7c9190615903565b5050509150508091505090565b6000600d60009054906101000a900460ff169050600081601d60000160009054906101000a900473ffffffffffffffffffffffffffffffffffffffff16601a54604051602401611cdb9392919061597e565b6040516020818303038152906040527f29489f2c000000000000000000000000000000000000000000000000000000007bffffffffffffffffffffffffffffffffffffffffffffffffffffffff19166020820180517bffffffffffffffffffffffffffffffffffffffffffffffffffffffff838183161783525050505090506000611d8a601960009054906101000a900473ffffffffffffffffffffffffffffffffffffffff16600084612f19565b9050601d60000160009054906101000a900473ffffffffffffffffffffffffffffffffffffffff1673ffffffffffffffffffffffffffffffffffffffff16817f84edcd2ec29d4eb5833aae5983d30584a33b51f1a22cbd8a7b194b923441ff0285604051611df89190613f9d565b60405180910390a3505050565b606060048054611e1490614b23565b80601f0160208091040260200160405190810160405280929190818152602001828054611e4090614b23565b8015611e8d5780601f10611e6257610100808354040283529160200191611e8d565b820191906000526020600020905b815481529060010190602001808311611e7057829003601f168201915b5050505050905090565b600080611ea261289b565b9050611eaf818585612bff565b600191505092915050565b60007f0000000000000000000000000000000000000000000000000000000000000000905090565b6000600f60009054906101000a900473ffffffffffffffffffffffffffffffffffffffff1673ffffffffffffffffffffffffffffffffffffffff166370a08231836040518263ffffffff1660e01b8152600401611f3f919061444f565b602060405180830381865afa158015611f5c573d6000803e3d6000fd5b505050506040513d601f19601f82011682018060405250810190611f809190615111565b9050919050565b600a5481565b600073ffffffffffffffffffffffffffffffffffffffff16601260009054906101000a900473ffffffffffffffffffffffffffffffffffffffff1673ffffffffffffffffffffffffffffffffffffffff1603612015576040517fd92e233d00000000000000000000000000000000000000000000000000000000815260040160405180910390fd5b600073ffffffffffffffffffffffffffffffffffffffff16601960009054906101000a900473ffffffffffffffffffffffffffffffffffffffff1673ffffffffffffffffffffffffffffffffffffffff16036120a6576040517f08c379a000000000000000000000000000000000000000000000000000000000815260040161209d90615a01565b60405180910390fd5b601d60050160009054906101000a900460ff166120f8576040517f08c379a00000000000000000000000000000000000000000000000000000000081526004016120ef90615a6d565b60405180910390fd5b6000811161213b576040517f08c379a000000000000000000000000000000000000000000000000000000000815260040161213290615ad9565b60405180910390fd5b601d6001015461215b61214c61103e565b8361359a90919063ffffffff16565b111561219c576040517f08c379a000000000000000000000000000000000000000000000000000000000815260040161219390615b45565b60405180910390fd5b601d600101546121bc6121ad61103e565b8361359a90919063ffffffff16565b6121c4610f80565b6121ce9190615b65565b111561220f576040517f08c379a000000000000000000000000000000000000000000000000000000000815260040161220690615be5565b60405180910390fd5b600061221a8261179e565b905080601260009054906101000a900473ffffffffffffffffffffffffffffffffffffffff1673ffffffffffffffffffffffffffffffffffffffff166370a08231336040518263ffffffff1660e01b8152600401612278919061444f565b602060405180830381865afa158015612295573d6000803e3d6000fd5b505050506040513d601f19601f820116820180604052508101906122b99190615111565b10156122fa576040517f08c379a00000000000000000000000000000000000000000000000000000000081526004016122f190615c51565b60405180910390fd5b6000601d60000160009054906101000a900473ffffffffffffffffffffffffffffffffffffffff163033858560405160240161233a959493929190615c71565b6040516020818303038152906040527f8dc5ecfd000000000000000000000000000000000000000000000000000000007bffffffffffffffffffffffffffffffffffffffffffffffffffffffff19166020820180517bffffffffffffffffffffffffffffffffffffffffffffffffffffffff8381831617835250505050905060006123e8601960009054906101000a900473ffffffffffffffffffffffffffffffffffffffff168484612f19565b905061240d336124086123f961103e565b8761359a90919063ffffffff16565b6135bc565b601c339080600181540180825580915050600190039060005260206000200160009091909190916101000a81548173ffffffffffffffffffffffffffffffffffffffff021916908373ffffffffffffffffffffffffffffffffffffffff1602179055503373ffffffffffffffffffffffffffffffffffffffff16817f27eae006bf82f360f2df9b3aaabe24db534517deb36de406927cee77a2d8cea130866040516124b9929190615cc4565b60405180910390a350505050565b600d60009054906101000a900460ff1681565b6124e26129b6565b83600790816124f19190615d48565b5082600860006101000a81548167ffffffffffffffff021916908367ffffffffffffffff160217905550816008806101000a81548163ffffffff021916908363ffffffff1602179055508060098190555050505050565b601a5481565b600d60019054906101000a900473ffffffffffffffffffffffffffffffffffffffff1681565b6000600160008473ffffffffffffffffffffffffffffffffffffffff1673ffffffffffffffffffffffffffffffffffffffff16815260200190815260200160002060008373ffffffffffffffffffffffffffffffffffffffff1673ffffffffffffffffffffffffffffffffffffffff16815260200190815260200160002054905092915050565b6126036129b6565b61260c8161363e565b50565b7f000000000000000000000000000000000000000000000000000000000000000073ffffffffffffffffffffffffffffffffffffffff1663461d2762600860009054906101000a900467ffffffffffffffff166007600160088054906101000a900463ffffffff166009546040518663ffffffff1660e01b815260040161269a959493929190615ebb565b6020604051808303816000875af19250505080156126d657506040513d601f19601f820116820180604052508101906126d39190615f2a565b60015b6127b0576126e2615f64565b806308c379a00361273e57506126f6615f86565b806127015750612740565b7f2ba61e3733e7ac99181c22307780f651ec8fd92fe661a84dfbe711710b2dc36c816040516127309190614048565b60405180910390a1506127ab565b505b3d806000811461276c576040519150601f19603f3d011682016040523d82523d6000602084013e612771565b606091505b507f9c4bfa18304482256875c29fabb1a44a5ecd325f214ea17bab8f31e869faf4c8816040516127a19190614512565b60405180910390a1505b612837565b80600a81905550807f1131472297a800fee664d1d89cfa8f7676ff07189ecc53f80bbb5f4969099db860405160405180910390a28273ffffffffffffffffffffffffffffffffffffffff16600a547fa620dae2d972f73cccf2e16ce9013603691a22b3fe05b1bc4575e7d93045bbeb8460405161282d9190614048565b60405180910390a3505b5050565b60088054906101000a900463ffffffff1681565b600e60009054906101000a900473ffffffffffffffffffffffffffffffffffffffff1681565b601960009054906101000a900473ffffffffffffffffffffffffffffffffffffffff1681565b600033905090565b6128b0838383600161376c565b505050565b82600a54146128fb57826040517fd068bf5b0000000000000000000000000000000000000000000000000000000081526004016128f2919061475c565b60405180910390fd5b81600b908161290a9190615d48565b5080600c908161291a9190615d48565b50600082511161292b576000612943565b6001828060200190518101906129419190615111565b145b600d60006101000a81548160ff021916908315150217905550612964611c89565b827fa594f1c98a8af56c445798c17354f0e7fe58b99de188c4ce4006b4adf8e6842c600b600c600d60009054906101000a900460ff166040516129a993929190616016565b60405180910390a2505050565b600560009054906101000a900473ffffffffffffffffffffffffffffffffffffffff1673ffffffffffffffffffffffffffffffffffffffff163373ffffffffffffffffffffffffffffffffffffffff1614612a46576040517f08c379a0000000000000000000000000000000000000000000000000000000008152600401612a3d906160a7565b60405180910390fd5b565b600081600a612a57919061552c565b83612a6291906155e8565b905092915050565b612ae4838473ffffffffffffffffffffffffffffffffffffffff1663a9059cbb8585604051602401612a9d929190615cc4565b604051602081830303815290604052915060e01b6020820180517bffffffffffffffffffffffffffffffffffffffffffffffffffffffff8381831617835250505050613943565b505050565b600073ffffffffffffffffffffffffffffffffffffffff168273ffffffffffffffffffffffffffffffffffffffff1603612b5b5760006040517f96c6fd1e000000000000000000000000000000000000000000000000000000008152600401612b52919061444f565b60405180910390fd5b612b67826000836139da565b5050565b6000612b778484612574565b90507fffffffffffffffffffffffffffffffffffffffffffffffffffffffffffffffff8114612bf95781811015612be9578281836040517ffb8f41b2000000000000000000000000000000000000000000000000000000008152600401612be0939291906160c7565b60405180910390fd5b612bf88484848403600061376c565b5b50505050565b600073ffffffffffffffffffffffffffffffffffffffff168373ffffffffffffffffffffffffffffffffffffffff1603612c715760006040517f96c6fd1e000000000000000000000000000000000000000000000000000000008152600401612c68919061444f565b60405180910390fd5b600073ffffffffffffffffffffffffffffffffffffffff168273ffffffffffffffffffffffffffffffffffffffff1603612ce35760006040517fec442f05000000000000000000000000000000000000000000000000000000008152600401612cda919061444f565b60405180910390fd5b612cee8383836139da565b505050565b6000601d60030154421015905090565b806000015160148190555060003073ffffffffffffffffffffffffffffffffffffffff168260600151604051612d39919061613a565b6000604051808303816000865af19150503d8060008114612d76576040519150601f19603f3d011682016040523d82523d6000602084013e612d7b565b606091505b505090508160800151600081518110612d9757612d966150cd565b5b602002602001015160000151601560006101000a81548173ffffffffffffffffffffffffffffffffffffffff021916908373ffffffffffffffffffffffffffffffffffffffff1602179055508160800151600081518110612dfb57612dfa6150cd565b5b6020026020010151602001516016819055508015612e94576014547f12abfba2ed470ad002720aecb72d30c1949514153711990b91f888c18eb4202b8360400151806020019051810190612e4f919061618f565b601560009054906101000a900473ffffffffffffffffffffffffffffffffffffffff166016546017604051612e8794939291906161dd565b60405180910390a2612f15565b6014547f520db8f5d8d221fa47361b88d92d30679832dc9191b21c6e06deb0d6e03203ee8360400151806020019051810190612ed0919061618f565b601560009054906101000a900473ffffffffffffffffffffffffffffffffffffffff166016546017604051612f0894939291906161dd565b60405180910390a2600080fd5b5050565b60008073ffffffffffffffffffffffffffffffffffffffff168473ffffffffffffffffffffffffffffffffffffffff1603612f80576040517fd92e233d00000000000000000000000000000000000000000000000000000000815260040160405180910390fd5b6000600167ffffffffffffffff811115612f9d57612f9c6141bc565b5b604051908082528060200260200182016040528015612fd657816020015b612fc3613eb9565b815260200190600190039081612fbb5790505b50905060006040518060400160405280601260009054906101000a900473ffffffffffffffffffffffffffffffffffffffff1673ffffffffffffffffffffffffffffffffffffffff168152602001868152509050808260008151811061303f5761303e6150cd565b5b602002602001018190525060006040518060a0016040528088604051602001613068919061444f565b6040516020818303038152906040528152602001868152602001848152602001600f60009054906101000a900473ffffffffffffffffffffffffffffffffffffffff1673ffffffffffffffffffffffffffffffffffffffff1681526020016130e06040518060200160405280620ef420815250613bff565b81525090506000600e60009054906101000a900473ffffffffffffffffffffffffffffffffffffffff1673ffffffffffffffffffffffffffffffffffffffff166320487ded601060149054906101000a900467ffffffffffffffff16846040518363ffffffff1660e01b815260040161315a9291906163fa565b602060405180830381865afa158015613177573d6000803e3d6000fd5b505050506040513d601f19601f8201168201806040525081019061319b9190615111565b9050600f60009054906101000a900473ffffffffffffffffffffffffffffffffffffffff1673ffffffffffffffffffffffffffffffffffffffff166370a08231306040518263ffffffff1660e01b81526004016131f8919061444f565b602060405180830381865afa158015613215573d6000803e3d6000fd5b505050506040513d601f19601f820116820180604052508101906132399190615111565b81111561331a57600f60009054906101000a900473ffffffffffffffffffffffffffffffffffffffff1673ffffffffffffffffffffffffffffffffffffffff166370a08231306040518263ffffffff1660e01b815260040161329b919061444f565b602060405180830381865afa1580156132b8573d6000803e3d6000fd5b505050506040513d601f19601f820116820180604052508101906132dc9190615111565b816040517f8f0f420600000000000000000000000000000000000000000000000000000000815260040161331192919061642a565b60405180910390fd5b600f60009054906101000a900473ffffffffffffffffffffffffffffffffffffffff1673ffffffffffffffffffffffffffffffffffffffff1663095ea7b3601360009054906101000a900473ffffffffffffffffffffffffffffffffffffffff16836040518363ffffffff1660e01b8152600401613399929190615cc4565b6020604051808303816000875af11580156133b8573d6000803e3d6000fd5b505050506040513d601f19601f820116820180604052508101906133dc9190616453565b5061342c601260009054906101000a900473ffffffffffffffffffffffffffffffffffffffff16600e60009054906101000a900473ffffffffffffffffffffffffffffffffffffffff1689613c7e565b6000600e60009054906101000a900473ffffffffffffffffffffffffffffffffffffffff1673ffffffffffffffffffffffffffffffffffffffff166396f4e9f9601060149054906101000a900467ffffffffffffffff16856040518363ffffffff1660e01b81526004016134a19291906163fa565b6020604051808303816000875af11580156134c0573d6000803e3d6000fd5b505050506040513d601f19601f820116820180604052508101906134e49190615f2a565b9050601060149054906101000a900467ffffffffffffffff1667ffffffffffffffff16817f6b6da56b1307373f9bd6679da1d5b7f08ce714f80bc3b92807d23fd9064917f88b601260009054906101000a900473ffffffffffffffffffffffffffffffffffffffff168c600f60009054906101000a900473ffffffffffffffffffffffffffffffffffffffff1688604051613583959493929190616480565b60405180910390a380955050505050509392505050565b600081600a6135a9919061552c565b836135b49190615577565b905092915050565b600073ffffffffffffffffffffffffffffffffffffffff168273ffffffffffffffffffffffffffffffffffffffff160361362e5760006040517fec442f05000000000000000000000000000000000000000000000000000000008152600401613625919061444f565b60405180910390fd5b61363a600083836139da565b5050565b3373ffffffffffffffffffffffffffffffffffffffff168173ffffffffffffffffffffffffffffffffffffffff16036136ac576040517f08c379a00000000000000000000000000000000000000000000000000000000081526004016136a39061651f565b60405180910390fd5b80600660006101000a81548173ffffffffffffffffffffffffffffffffffffffff021916908373ffffffffffffffffffffffffffffffffffffffff1602179055508073ffffffffffffffffffffffffffffffffffffffff16600560009054906101000a900473ffffffffffffffffffffffffffffffffffffffff1673ffffffffffffffffffffffffffffffffffffffff167fed8889f560326eb138920d842192f0eb3dd22b4f139c87a2c57538e05bae127860405160405180910390a350565b600073ffffffffffffffffffffffffffffffffffffffff168473ffffffffffffffffffffffffffffffffffffffff16036137de5760006040517fe602df050000000000000000000000000000000000000000000000000000000081526004016137d5919061444f565b60405180910390fd5b600073ffffffffffffffffffffffffffffffffffffffff168373ffffffffffffffffffffffffffffffffffffffff16036138505760006040517f94280d62000000000000000000000000000000000000000000000000000000008152600401613847919061444f565b60405180910390fd5b81600160008673ffffffffffffffffffffffffffffffffffffffff1673ffffffffffffffffffffffffffffffffffffffff16815260200190815260200160002060008573ffffffffffffffffffffffffffffffffffffffff1673ffffffffffffffffffffffffffffffffffffffff16815260200190815260200160002081905550801561393d578273ffffffffffffffffffffffffffffffffffffffff168473ffffffffffffffffffffffffffffffffffffffff167f8c5be1e5ebec7d5bd14f71427d1e84f3dd0314c0f7b2291e5b200ac8c7c3b925846040516139349190614425565b60405180910390a35b50505050565b600061396e828473ffffffffffffffffffffffffffffffffffffffff16613d0290919063ffffffff16565b905060008151141580156139935750808060200190518101906139919190616453565b155b156139d557826040517f5274afe70000000000000000000000000000000000000000000000000000000081526004016139cc919061444f565b60405180910390fd5b505050565b600073ffffffffffffffffffffffffffffffffffffffff168373ffffffffffffffffffffffffffffffffffffffff1603613a2c578060026000828254613a209190615b65565b92505081905550613aff565b60008060008573ffffffffffffffffffffffffffffffffffffffff1673ffffffffffffffffffffffffffffffffffffffff16815260200190815260200160002054905081811015613ab8578381836040517fe450d38c000000000000000000000000000000000000000000000000000000008152600401613aaf939291906160c7565b60405180910390fd5b8181036000808673ffffffffffffffffffffffffffffffffffffffff1673ffffffffffffffffffffffffffffffffffffffff16815260200190815260200160002081905550505b600073ffffffffffffffffffffffffffffffffffffffff168273ffffffffffffffffffffffffffffffffffffffff1603613b485780600260008282540392505081905550613b95565b806000808473ffffffffffffffffffffffffffffffffffffffff1673ffffffffffffffffffffffffffffffffffffffff168152602001908152602001600020600082825401925050819055505b8173ffffffffffffffffffffffffffffffffffffffff168373ffffffffffffffffffffffffffffffffffffffff167fddf252ad1be2c89b69c2b068fc378daa952ba7f163c4a11628f55a4df523b3ef83604051613bf29190614425565b60405180910390a3505050565b60606397a657c960e01b82604051602401613c1a919061655b565b604051602081830303815290604052907bffffffffffffffffffffffffffffffffffffffffffffffffffffffff19166020820180517bffffffffffffffffffffffffffffffffffffffffffffffffffffffff83818316178352505050509050919050565b8273ffffffffffffffffffffffffffffffffffffffff1663095ea7b383836040518363ffffffff1660e01b8152600401613cb9929190615cc4565b6020604051808303816000875af1158015613cd8573d6000803e3d6000fd5b505050506040513d601f19601f82011682018060405250810190613cfc9190616453565b50505050565b6060613d1083836000613d18565b905092915050565b606081471015613d5f57306040517fcd786059000000000000000000000000000000000000000000000000000000008152600401613d56919061444f565b60405180910390fd5b6000808573ffffffffffffffffffffffffffffffffffffffff168486604051613d88919061613a565b60006040518083038185875af1925050503d8060008114613dc5576040519150601f19603f3d011682016040523d82523d6000602084013e613dca565b606091505b5091509150613dda868383613de5565b925050509392505050565b606082613dfa57613df582613e74565b613e6c565b60008251148015613e22575060008473ffffffffffffffffffffffffffffffffffffffff163b145b15613e6457836040517f9996b315000000000000000000000000000000000000000000000000000000008152600401613e5b919061444f565b60405180910390fd5b819050613e6d565b5b9392505050565b600081511115613e875780518082602001fd5b6040517f1425ea4200000000000000000000000000000000000000000000000000000000815260040160405180910390fd5b6040518060400160405280600073ffffffffffffffffffffffffffffffffffffffff168152602001600081525090565b6000604051905090565b600080fd5b600080fd5b60007fffffffff0000000000000000000000000000000000000000000000000000000082169050919050565b613f3281613efd565b8114613f3d57600080fd5b50565b600081359050613f4f81613f29565b92915050565b600060208284031215613f6b57613f6a613ef3565b5b6000613f7984828501613f40565b91505092915050565b60008115159050919050565b613f9781613f82565b82525050565b6000602082019050613fb26000830184613f8e565b92915050565b600081519050919050565b600082825260208201905092915050565b60005b83811015613ff2578082015181840152602081019050613fd7565b60008484015250505050565b6000601f19601f8301169050919050565b600061401a82613fb8565b6140248185613fc3565b9350614034818560208601613fd4565b61403d81613ffe565b840191505092915050565b60006020820190508181036000830152614062818461400f565b905092915050565b600073ffffffffffffffffffffffffffffffffffffffff82169050919050565b60006140958261406a565b9050919050565b6140a58161408a565b81146140b057600080fd5b50565b6000813590506140c28161409c565b92915050565b6000819050919050565b6140db816140c8565b81146140e657600080fd5b50565b6000813590506140f8816140d2565b92915050565b6000806040838503121561411557614114613ef3565b5b6000614123858286016140b3565b9250506020614134858286016140e9565b9150509250929050565b600067ffffffffffffffff82169050919050565b61415b8161413e565b82525050565b60006020820190506141766000830184614152565b92915050565b6000819050919050565b61418f8161417c565b811461419a57600080fd5b50565b6000813590506141ac81614186565b92915050565b600080fd5b600080fd5b7f4e487b7100000000000000000000000000000000000000000000000000000000600052604160045260246000fd5b6141f482613ffe565b810181811067ffffffffffffffff82111715614213576142126141bc565b5b80604052505050565b6000614226613ee9565b905061423282826141eb565b919050565b600067ffffffffffffffff821115614252576142516141bc565b5b61425b82613ffe565b9050602081019050919050565b82818337600083830152505050565b600061428a61428584614237565b61421c565b9050828152602081018484840111156142a6576142a56141b7565b5b6142b1848285614268565b509392505050565b600082601f8301126142ce576142cd6141b2565b5b81356142de848260208601614277565b91505092915050565b600080600060608486031215614300576142ff613ef3565b5b600061430e8682870161419d565b935050602084013567ffffffffffffffff81111561432f5761432e613ef8565b5b61433b868287016142b9565b925050604084013567ffffffffffffffff81111561435c5761435b613ef8565b5b614368868287016142b9565b9150509250925092565b600080fd5b600060c0828403121561438d5761438c614372565b5b81905092915050565b6000602082840312156143ac576143ab613ef3565b5b600082013567ffffffffffffffff8111156143ca576143c9613ef8565b5b6143d684828501614377565b91505092915050565b600060ff82169050919050565b6143f5816143df565b82525050565b600060208201905061441060008301846143ec565b92915050565b61441f816140c8565b82525050565b600060208201905061443a6000830184614416565b92915050565b6144498161408a565b82525050565b60006020820190506144646000830184614440565b92915050565b60008060006060848603121561448357614482613ef3565b5b6000614491868287016140b3565b93505060206144a2868287016140b3565b92505060406144b3868287016140e9565b9150509250925092565b600081519050919050565b600082825260208201905092915050565b60006144e4826144bd565b6144ee81856144c8565b93506144fe818560208601613fd4565b61450781613ffe565b840191505092915050565b6000602082019050818103600083015261452c81846144d9565b905092915050565b60006020828403121561454a57614549613ef3565b5b6000614558848285016140e9565b91505092915050565b600080fd5b600080fd5b60008083601f840112614581576145806141b2565b5b8235905067ffffffffffffffff81111561459e5761459d614561565b5b6020830191508360018202830111156145ba576145b9614566565b5b9250929050565b600080602083850312156145d8576145d7613ef3565b5b600083013567ffffffffffffffff8111156145f6576145f5613ef8565b5b6146028582860161456b565b92509250509250929050565b6000819050919050565b600061463361462e6146298461406a565b61460e565b61406a565b9050919050565b600061464582614618565b9050919050565b60006146578261463a565b9050919050565b6146678161464c565b82525050565b6000602082019050614682600083018461465e565b92915050565b60006020828403121561469e5761469d613ef3565b5b60006146ac848285016140b3565b91505092915050565b600060c0820190506146ca6000830189614440565b6146d76020830188614416565b6146e46040830187614416565b6146f16060830186614416565b8181036080830152614703818561400f565b905061471260a0830184613f8e565b979650505050505050565b60006040820190506147326000830185613f8e565b818103602083015261474481846144d9565b90509392505050565b6147568161417c565b82525050565b6000602082019050614771600083018461474d565b92915050565b6147808161413e565b811461478b57600080fd5b50565b60008135905061479d81614777565b92915050565b6000806000606084860312156147bc576147bb613ef3565b5b60006147ca8682870161478e565b93505060206147db868287016140b3565b92505060406147ec868287016140b3565b9150509250925092565b600060a0828403121561480c5761480b614372565b5b81905092915050565b60006020828403121561482b5761482a613ef3565b5b600082013567ffffffffffffffff81111561484957614848613ef8565b5b614855848285016147f6565b91505092915050565b6000819050919050565b6148718161485e565b82525050565b600060208201905061488c6000830184614868565b92915050565b600063ffffffff82169050919050565b6148ab81614892565b81146148b657600080fd5b50565b6000813590506148c8816148a2565b92915050565b600080600080608085870312156148e8576148e7613ef3565b5b600085013567ffffffffffffffff81111561490657614905613ef8565b5b614912878288016142b9565b94505060206149238782880161478e565b9350506040614934878288016148b9565b92505060606149458782880161419d565b91505092959194509250565b6000806040838503121561496857614967613ef3565b5b6000614976858286016140b3565b9250506020614987858286016140b3565b9150509250929050565b600067ffffffffffffffff8211156149ac576149ab6141bc565b5b6149b582613ffe565b9050602081019050919050565b60006149d56149d084614991565b61421c565b9050828152602081018484840111156149f1576149f06141b7565b5b6149fc848285614268565b509392505050565b600082601f830112614a1957614a186141b2565b5b8135614a298482602086016149c2565b91505092915050565b60008060408385031215614a4957614a48613ef3565b5b6000614a57858286016140b3565b925050602083013567ffffffffffffffff811115614a7857614a77613ef8565b5b614a8485828601614a04565b9150509250929050565b614a9781614892565b82525050565b6000602082019050614ab26000830184614a8e565b92915050565b6000614ac38261463a565b9050919050565b614ad381614ab8565b82525050565b6000602082019050614aee6000830184614aca565b92915050565b7f4e487b7100000000000000000000000000000000000000000000000000000000600052602260045260246000fd5b60006002820490506001821680614b3b57607f821691505b602082108103614b4e57614b4d614af4565b5b50919050565b60008135614b618161409c565b80915050919050565b60008160001b9050919050565b600073ffffffffffffffffffffffffffffffffffffffff614b9784614b6a565b9350801983169250808416831791505092915050565b6000614bb88261463a565b9050919050565b6000819050919050565b614bd282614bad565b614be5614bde82614bbf565b8354614b77565b8255505050565b60008135614bf9816140d2565b80915050919050565b60007fffffffffffffffffffffffffffffffffffffffffffffffffffffffffffffffff614c2e84614b6a565b9350801983169250808416831791505092915050565b6000614c5f614c5a614c55846140c8565b61460e565b6140c8565b9050919050565b6000819050919050565b614c7982614c44565b614c8c614c8582614c66565b8354614c02565b8255505050565b600080fd5b600080fd5b600080fd5b60008083356001602003843603038112614cbf57614cbe614c93565b5b80840192508235915067ffffffffffffffff821115614ce157614ce0614c98565b5b602083019250600182023603831315614cfd57614cfc614c9d565b5b509250929050565b600082905092915050565b60008190508160005260206000209050919050565b60006020601f8301049050919050565b600082821b905092915050565b600060088302614d727fffffffffffffffffffffffffffffffffffffffffffffffffffffffffffffffff82614d35565b614d7c8683614d35565b95508019841693508086168417925050509392505050565b614d9d83614c44565b614db1614da982614c66565b848454614d42565b825550505050565b600090565b614dc6614db9565b614dd1818484614d94565b505050565b5b81811015614df557614dea600082614dbe565b600181019050614dd7565b5050565b601f821115614e3a57614e0b81614d10565b614e1484614d25565b81016020851015614e23578190505b614e37614e2f85614d25565b830182614dd6565b50505b505050565b600082821c905092915050565b6000614e5d60001984600802614e3f565b1980831691505092915050565b6000614e768383614e4c565b9150826002028217905092915050565b614e908383614d05565b67ffffffffffffffff811115614ea957614ea86141bc565b5b614eb38254614b23565b614ebe828285614df9565b6000601f831160018114614eed5760008415614edb578287013590505b614ee58582614e6a565b865550614f4d565b601f198416614efb86614d10565b60005b82811015614f2357848901358255600182019150602085019450602081019050614efe565b86831015614f405784890135614f3c601f891682614e4c565b8355505b6001600288020188555050505b50505050505050565b614f61838383614e86565b505050565b614f6f81613f82565b8114614f7a57600080fd5b50565b60008135614f8a81614f66565b80915050919050565b600060ff614fa084614b6a565b9350801983169250808416831791505092915050565b6000614fc182613f82565b9050919050565b6000819050919050565b614fdb82614fb6565b614fee614fe782614fc8565b8354614f93565b8255505050565b60008101600083018061500781614b54565b90506150138184614bc9565b50505060018101602083018061502881614bec565b90506150348184614c70565b50505060028101604083018061504981614bec565b90506150558184614c70565b50505060038101606083018061506a81614bec565b90506150768184614c70565b505050600481016080830161508b8185614ca2565b615096818386614f56565b505050506005810160a08301806150ac81614f7d565b90506150b88184614fd2565b5050505050565b6150c98282614ff5565b5050565b7f4e487b7100000000000000000000000000000000000000000000000000000000600052603260045260246000fd5b60008151905061510b816140d2565b92915050565b60006020828403121561512757615126613ef3565b5b6000615135848285016150fc565b91505092915050565b7f4e487b7100000000000000000000000000000000000000000000000000000000600052601160045260246000fd5b6000615178826140c8565b9150615183836140c8565b925082820390508181111561519b5761519a61513e565b5b92915050565b60006060820190506151b66000830186614416565b6151c36020830185614416565b6151d06040830184614416565b949350505050565b6151e1816143df565b81146151ec57600080fd5b50565b6000815190506151fe816151d8565b92915050565b60006020828403121561521a57615219613ef3565b5b6000615228848285016151ef565b91505092915050565b50565b6000615241600083613fc3565b915061524c82615231565b600082019050919050565b6000602082019050818103600083015261527081615234565b9050919050565b60008151905061528681614f66565b92915050565b600061529f61529a84614237565b61421c565b9050828152602081018484840111156152bb576152ba6141b7565b5b6152c6848285613fd4565b509392505050565b600082601f8301126152e3576152e26141b2565b5b81516152f384826020860161528c565b91505092915050565b6000806040838503121561531357615312613ef3565b5b600061532185828601615277565b925050602083015167ffffffffffffffff81111561534257615341613ef8565b5b61534e858286016152ce565b9150509250929050565b7f636865636b55706b656570206e6f74206d657400000000000000000000000000600082015250565b600061538e601383613fc3565b915061539982615358565b602082019050919050565b600060208201905081810360008301526153bd81615381565b9050919050565b60006153cf826143df565b91506153da836143df565b9250828203905060ff8111156153f3576153f261513e565b5b92915050565b60008160011c9050919050565b6000808291508390505b60018511156154505780860481111561542c5761542b61513e565b5b600185161561543b5780820291505b8081029050615449856153f9565b9450615410565b94509492505050565b6000826154695760019050615525565b816154775760009050615525565b816001811461548d5760028114615497576154c6565b6001915050615525565b60ff8411156154a9576154a861513e565b5b8360020a9150848211156154c0576154bf61513e565b5b50615525565b5060208310610133831016604e8410600b84101617156154fb5782820a9050838111156154f6576154f561513e565b5b615525565b6155088484846001615406565b9250905081840481111561551f5761551e61513e565b5b81810290505b9392505050565b6000615537826140c8565b9150615542836143df565b925061556f7fffffffffffffffffffffffffffffffffffffffffffffffffffffffffffffffff8484615459565b905092915050565b6000615582826140c8565b915061558d836140c8565b925082820261559b816140c8565b915082820484148315176155b2576155b161513e565b5b5092915050565b7f4e487b7100000000000000000000000000000000000000000000000000000000600052601260045260246000fd5b60006155f3826140c8565b91506155fe836140c8565b92508261560e5761560d6155b9565b5b828204905092915050565b7f4d7573742062652070726f706f736564206f776e657200000000000000000000600082015250565b600061564f601683613fc3565b915061565a82615619565b602082019050919050565b6000602082019050818103600083015261567e81615642565b9050919050565b600080fd5b600080fd5b600067ffffffffffffffff8211156156aa576156a96141bc565b5b602082029050602081019050919050565b6000604082840312156156d1576156d0615685565b5b6156db604061421c565b905060006156eb848285016140b3565b60008301525060206156ff848285016140e9565b60208301525092915050565b600061571e6157198461568f565b61421c565b9050808382526020820190506040840283018581111561574157615740614566565b5b835b8181101561576a578061575688826156bb565b845260208401935050604081019050615743565b5050509392505050565b600082601f830112615789576157886141b2565b5b813561579984826020860161570b565b91505092915050565b600060a082840312156157b8576157b7615685565b5b6157c260a061421c565b905060006157d28482850161419d565b60008301525060206157e68482850161478e565b602083015250604082013567ffffffffffffffff81111561580a5761580961568a565b5b615816848285016142b9565b604083015250606082013567ffffffffffffffff81111561583a5761583961568a565b5b615846848285016142b9565b606083015250608082013567ffffffffffffffff81111561586a5761586961568a565b5b61587684828501615774565b60808301525092915050565b600061588e36836157a2565b9050919050565b600069ffffffffffffffffffff82169050919050565b6158b481615895565b81146158bf57600080fd5b50565b6000815190506158d1816158ab565b92915050565b6158e08161485e565b81146158eb57600080fd5b50565b6000815190506158fd816158d7565b92915050565b600080600080600060a0868803121561591f5761591e613ef3565b5b600061592d888289016158c2565b955050602061593e888289016158ee565b945050604061594f888289016150fc565b9350506060615960888289016150fc565b9250506080615971888289016158c2565b9150509295509295909350565b60006060820190506159936000830186613f8e565b6159a06020830185614440565b6159ad6040830184614416565b949350505050565b7f7661756c74206973206e6f742073657420796574000000000000000000000000600082015250565b60006159eb601483613fc3565b91506159f6826159b5565b602082019050919050565b60006020820190508181036000830152615a1a816159de565b9050919050565b7f746f6b656e525741496e666f206973206e6f7420736574207965740000000000600082015250565b6000615a57601b83613fc3565b9150615a6282615a21565b602082019050919050565b60006020820190508181036000830152615a8681615a4a565b9050919050565b7f496e76616c6964207175616e7469747900000000000000000000000000000000600082015250565b6000615ac3601083613fc3565b9150615ace82615a8d565b602082019050919050565b60006020820190508181036000830152615af281615ab6565b9050919050565b7f5175616e746974792069732067726561746572207468616e20737570706c7900600082015250565b6000615b2f601f83613fc3565b9150615b3a82615af9565b602082019050919050565b60006020820190508181036000830152615b5e81615b22565b9050919050565b6000615b70826140c8565b9150615b7b836140c8565b9250828201905080821115615b9357615b9261513e565b5b92915050565b7f4e6f7420737566696369656e7420696e737572616e636520696e2073746f636b600082015250565b6000615bcf602083613fc3565b9150615bda82615b99565b602082019050919050565b60006020820190508181036000830152615bfe81615bc2565b9050919050565b7f496e73756666696369656e742055534443000000000000000000000000000000600082015250565b6000615c3b601183613fc3565b9150615c4682615c05565b602082019050919050565b60006020820190508181036000830152615c6a81615c2e565b9050919050565b600060a082019050615c866000830188614440565b615c936020830187614440565b615ca06040830186614440565b615cad6060830185614416565b615cba6080830184614416565b9695505050505050565b6000604082019050615cd96000830185614440565b615ce66020830184614416565b9392505050565b60008190508160005260206000209050919050565b601f821115615d4357615d1481615ced565b615d1d84614d25565b81016020851015615d2c578190505b615d40615d3885614d25565b830182614dd6565b50505b505050565b615d51826144bd565b67ffffffffffffffff811115615d6a57615d696141bc565b5b615d748254614b23565b615d7f828285615d02565b600060209050601f831160018114615db25760008415615da0578287015190505b615daa8582614e6a565b865550615e12565b601f198416615dc086615ced565b60005b82811015615de857848901518255600182019150602085019450602081019050615dc3565b86831015615e055784890151615e01601f891682614e4c565b8355505b6001600288020188555050505b505050505050565b60008154615e2781614b23565b615e3181866144c8565b94506001821660008114615e4c5760018114615e6257615e95565b60ff198316865281151560200286019350615e95565b615e6b85615ced565b60005b83811015615e8d57815481890152600182019150602081019050615e6e565b808801955050505b50505092915050565b600061ffff82169050919050565b615eb581615e9e565b82525050565b600060a082019050615ed06000830188614152565b8181036020830152615ee28187615e1a565b9050615ef16040830186615eac565b615efe6060830185614a8e565b615f0b608083018461474d565b9695505050505050565b600081519050615f2481614186565b92915050565b600060208284031215615f4057615f3f613ef3565b5b6000615f4e84828501615f15565b91505092915050565b60008160e01c9050919050565b600060033d1115615f835760046000803e615f80600051615f57565b90505b90565b600060443d1061601357615f98613ee9565b60043d036004823e80513d602482011167ffffffffffffffff82111715615fc0575050616013565b808201805167ffffffffffffffff811115615fde5750505050616013565b80602083010160043d038501811115615ffb575050505050616013565b61600a826020018501866141eb565b82955050505050505b90565b600060608201905081810360008301526160308186615e1a565b905081810360208301526160448185615e1a565b90506160536040830184613f8e565b949350505050565b7f4f6e6c792063616c6c61626c65206279206f776e657200000000000000000000600082015250565b6000616091601683613fc3565b915061609c8261605b565b602082019050919050565b600060208201905081810360008301526160c081616084565b9050919050565b60006060820190506160dc6000830186614440565b6160e96020830185614416565b6160f66040830184614416565b949350505050565b600081905092915050565b6000616114826144bd565b61611e81856160fe565b935061612e818560208601613fd4565b80840191505092915050565b60006161468284616109565b915081905092915050565b600061615c8261406a565b9050919050565b61616c81616151565b811461617757600080fd5b50565b60008151905061618981616163565b92915050565b6000602082840312156161a5576161a4613ef3565b5b60006161b38482850161617a565b91505092915050565b60006161c78261463a565b9050919050565b6161d7816161bc565b82525050565b60006080820190506161f260008301876161ce565b6161ff6020830186614440565b61620c6040830185614416565b818103606083015261621e8184615e1a565b905095945050505050565b600082825260208201905092915050565b6000616245826144bd565b61624f8185616229565b935061625f818560208601613fd4565b61626881613ffe565b840191505092915050565b600081519050919050565b600082825260208201905092915050565b6000819050602082019050919050565b6162a88161408a565b82525050565b6162b7816140c8565b82525050565b6040820160008201516162d3600085018261629f565b5060208201516162e660208501826162ae565b50505050565b60006162f883836162bd565b60408301905092915050565b6000602082019050919050565b600061631c82616273565b616326818561627e565b93506163318361628f565b8060005b8381101561636257815161634988826162ec565b975061635483616304565b925050600181019050616335565b5085935050505092915050565b600060a083016000830151848203600086015261638c828261623a565b915050602083015184820360208601526163a6828261623a565b915050604083015184820360408601526163c08282616311565b91505060608301516163d5606086018261629f565b50608083015184820360808601526163ed828261623a565b9150508091505092915050565b600060408201905061640f6000830185614152565b8181036020830152616421818461636f565b90509392505050565b600060408201905061643f6000830185614416565b61644c6020830184614416565b9392505050565b60006020828403121561646957616468613ef3565b5b600061647784828501615277565b91505092915050565b600060a0820190506164956000830188614440565b6164a26020830187614440565b6164af6040830186614416565b6164bc6060830185614440565b6164c96080830184614416565b9695505050505050565b7f43616e6e6f74207472616e7366657220746f2073656c66000000000000000000600082015250565b6000616509601783613fc3565b9150616514826164d3565b602082019050919050565b60006020820190508181036000830152616538816164fc565b9050919050565b60208201600082015161655560008501826162ae565b50505050565b6000602082019050616570600083018461653f565b9291505056fea26469706673582212207737494f16d2146d26dfda8f13979e72b6601b8d080e043272da60e37c338d4964736f6c63430008180033",
  "linkReferences": {},
  "deployedLinkReferences": {}
}